:020000040800F2
:2000000000200020650A0008490A00084B0A00080000000000000000000000000000000071
:200020000000000000000000000000004D0A000800000000000000004F0A0008510A00089D
:20004000B50A000800000000B50A0008B50A0008B50A0008B50A0008B50A0008B50A00082F
:2000600000000000B50A0008B50A0008B50A0008B50A0008B50A0008B50A000800000000D6
:20008000B50A0008B50A000800000000B50A0008B50A0008B50A0008B50A0008B50A0008EF
:2000A00071020008B50A0008B50A0008B50A0008B50A0008000000000000000000000000A9
:2000C00010B5064C2378002B07D1054B002B02D0044800E000BF0123237010BD040000208B
:2000E00000000000E80D0008044B10B5002B03D00349044800E000BF10BDC04600000000E7
:2001000008000020E80D0008002243088B4274D303098B425FD3030A8B4244D3030B8B4262
:2001200028D3030C8B420DD3FF22090212BA030C8B4202D31212090265D0030B8B4219D334
:2001400000E0090AC30B8B4201D3CB03C01A5241830B8B4201D38B03C01A5241430B8B42BD
:2001600001D34B03C01A5241030B8B4201D30B03C01A5241C30A8B4201D3CB02C01A52411E
:20018000830A8B4201D38B02C01A5241430A8B4201D34B02C01A5241030A8B4201D30B02D4
:2001A000C01A5241CDD2C3098B4201D3CB01C01A524183098B4201D38B01C01A524143091B
:2001C0008B4201D34B01C01A524103098B4201D30B01C01A5241C3088B4201D3CB00C01A8E
:2001E000524183088B4201D38B00C01A524143088B4201D34B00C01A5241411A00D2014630
:20020000524110467047FFE701B5002000F006F802BDC0460029F7D076E770477047C0460E
:2002200010B5094A9368012423439360002907D00300411810001A78027001338B42FAD1F1
:20024000014B1868C04310BD0030024010B5054B1C6805490548FFF7E3FF201A434258412C
:20026000C0B210BDFCDF0008FCCF00000010000810B5344B9B691A073ED5324AD16908201F
:200280000143D1619269D2032ED52E490A68063802430A602C4A032111702A490A682020FF
:2002A00002430A609B0648D5264AD36920210B43D361254B1B78DAB2032B30D0042A3FD167
:2002C000224B00221A80204B01321A701D4B1A688A431A605968802212020A435A601A689C
:2002E00008210A431A602BE01648026804210A430260154A1170D0E79A07D3D45A07D1D581
:20030000104A516A1148028894B2013292B20280CAB20F490A550C4A04211170C2E7094B7A
:20032000D969982252000A43DA611A6808210A431A60054B00221A7002E0064B01221A8089
:2003400010BDC046005800403600002040040020380000203400002010B5134C200000F098
:2003600015FC6368114A134063602368012293432360236807329343236000220C4B1A6019
:200380000C4B18680321014019609A60DA601A615A6199690132FF320A439A6100F06EFC36
:2003A00000F05CFC10BDC04600580040FFFFFFFD10E000E00000014010B5FFF747FF002856
:2003C00007D00C4B1B680C4A134080229205934200D010BDFFF7C0FF084B1A68084B1A60C1
:2003E0001A68084B1A60034A126882F308881B689847EEE7001000080000FE2F041000084A
:20040000300000202C000020F8B5CE46474680B5314A53789078D17814791B06000403432E
:200420001C4309020C432D4B9C4212D9130052799B7912029B189BB2002B0ED10023264821
:2004400000218122D200C15401339342FBD100F041FAC0BCB946B046F8BD00F02BFA342062
:2004600000F040FA200000F081FA0428FAD18023DB00E3189C42E1D2221D93429B415B4239
:200480005A4253415B42FF22134001339846082608235B429946A1440F4F4B469D19BC5D91
:2004A000731CFB5CB21CB95CF21CBA5C1B0209040B431C43120614432100280000F082FA54
:2004C0000428F9D101235B429C46E04404364346002BE2D1B2E7C04638000020FF0F0008B1
:2004E00070B5214E214D224C02E02378012B06D033682A689A42F8D2FFF75EFFF5E71D4AA4
:200500007F3380214904D150BFF34F8FBFF36F8F174B00221A70184B1B78DBB2174A137065
:200520001378DAB2062B04D0772A0BD1FFF744FF08E00D4B1B68124A944663440B4A136081
:20054000FFF762FF0B4B802252041A600D4B1A6808210A431A601A68012002431A601A68CE
:200560000A431A60C4E7C04620000020240000203600002000E100E03800002028000020C8
:2005800060EA00000058004010B5274A136801210B431360110001220B681A42FCD0234AA9
:2005A000136801210B431360110002220B681A42FCD01E4B1A68F8218A4378390A431A60C4
:2005C00059681B4A1140A02292030A435A60DA6A0F218A43DA621968802252040A431A6089
:2005E0001900802292040B681342FCD00F4B5A68F0218A435A605A680E490A405A605A6883
:2006000003218A4301390A435A6019000C224B681340082BFBD1084C200000F08BFB200052
:2006200000F0B0FB10BDC0460020024000100240FFFFC2FFFFF8FFFF006CDC02F0B5C646E9
:2006400000B596B0894B996901221143996199690A400192019ADA69802149050A43DA6124
:20066000DB690B400093009B81490B6A1B021B0AC022120613430B62FFF786FF7D4B1868BC
:20068000FA218900FFF740FD01387B4B8022520412E0BFF34F8F764B784ADA60BFF34F8FBD
:2006A000C046FDE7764B1B68F533FF33754A13606AE0013B002BECD09042FAD2724A506009
:2006C0006B48036A1B021B0AC02109060B4303620027976007231360644C63698026F60240
:2006E00033436361636933400593059B63698025AD022B43636163692B400693069B6269BB
:2007000040231A436261626913400493049B5F4B9A6860218A4340390A439A609A686031B5
:200720000A439A60012252421A61193200210FA800F02EFB6369334363616369334002932A
:20074000029B63692B43636163692B400393039B8025ED000F95012613964D4C0FA920001C
:2007600000F0A9F980231B010F93109713960FA9200000F0A0F91E2000F0ECFA23692B42C8
:2007800002D123691B058DD51C2200210FA800F0FFFA1822002109A800F0FAFA334C63693E
:2007A0008022D20213436361636913400793079B8023DB000993022398460A9303270B97C8
:2007C00001250C950D950E95314E09A9300000F072F980231B01099343460A930B970C958D
:2007E0000D950E9509A9300000F065F9E3698022D2031343E361E36913400893089B254BDA
:20080000C62189005A58FF2082435A50802252041A60214CE368214A1340E3602368204A08
:200820001340236023681F4A1340236000230F931D4A109211931293A82213921493159343
:200840000FA9200000F0CEF9626880239B0413436360E368154A1340E36023682B43236028
:200860002368082213432360FFF73AFE0010024000ED00E000000020E12E00000400FA056B
:20088000200000202400002010E000E0003002400004004800E100E000580040FF7FFFFF71
:2008A000FFFFF7FFFFFFFDFF4B19900001F8FFFF70470000044B1B691B0604D5024B034A41
:2008C0005A60034A5A6070470020024023016745AB89EFCD024A136980210B43136170479C
:2008E0000020024010B50400342302009A4301D1002803D103480449FFF7DAFF034BDC60D8
:2009000010BDC046000E00088A04000000200240094BDB680120DB070AD4074BDB68DB0610
:2009200007D4054BDB680330184043425841033070470220FCE7C0460020024010B5040080
:20094000FFF7E6FF01280AD1002C0BD0FFF7E0FF013C012803D1002CF8D1043001E0002C6C
:2009600002D010BD0520FCE70520FAE770B50400F8231B06C21880235B029A4206D2B02007
:200980000003FFF7DBFF042806D070BD83210B484900FFF78DFFF2E7094D2B690226334332
:2009A0002B616C612B69402213432B61AC300003FFF7C4FF2B69B3432B61E6E7000E000875
:2009C0000020024030B583B005000C0000230193F8231B06C21880235B029A4207D2B0203A
:2009E0000003FFF7ABFF042807D003B030BDA72113484900FFF75CFFF1E7124A1369012122
:200A00000B431361A3B22B80AC300003FFF796FF042805D00B4A136901218B431361E4E7A9
:200A200002350195019B240C1C80AC300003FFF785FF044A136901218B431361D5E7C04638
:200A4000000E000800200240FEE7FEE770477047024A1368013313607047C046200000207B
:200A6000704700000D488546FFF7FAFF0C480D490D4A002302E0D458C4500433C4188C4289
:200A8000F9D30A4A0A4C002301E013600432A242FBD300F085F9FFF7D1FDFEE7002000202A
:200AA0000000002004000020280E00080400002044040020FEE7F0B5D6464F464646C0B5EC
:200AC0000B68002B5BD000220124A14620E0C3689846270067437B009C46BC446346DE431E
:200AE0000B697B439A46454663469D432B0055461D43C5604B68022B26D004684B687B43D2
:200B000034402343036001320B681C00D44036D04E4696401C0034403342F4D04B68013B9A
:200B2000012BD4D88368270067437E00F619B3438E687E43334383600F684368BB43CE6838
:200B40007E4333434360C2E7FF2C0CD8036A3C007C43A44624016546641BA3434C696C4318
:200B600023430362C9E7436A240A6443644325012D1BAB434D696C4323434362BDE7002041
:200B8000E0BCBA46B146A846F0BD00000300104A904204D00F4A012093420CD070470E4BE9
:200BA0001969802292030A431A611A690B490A401A610020F2E7084B19698022D2030A4386
:200BC0001A611A6906490A401A610020E6E7C046005400400058004000100240FFFFDFFFB6
:200BE000FFFFBFFF30B503680124A34303600268CB681B028D682B43154D2A4013430360D9
:200C00004B6803610368234303608368114A1340836082680B698C692343D20AD20213434E
:200C200083600B69002B04D0826880231B02134383600368084A13400A6813430360436895
:200C4000044A13404A6913434360002030BDC046FFE0FFFFFF7FFFFFFFFFCFFF054B19693D
:200C6000802252050A431A611A6903490A401A610020704700100240FFFFFFEF82B0294A65
:200C8000136801210B431360110002220B681A42FCD0244A1368F8218B4378390B431360E4
:200CA00001235B420193019B1F490B400193019B536011000C224B681A42FCD1194A1368B4
:200CC0000193019B19490B400193019B13601100802292040B681342FCD1124B1A6814497A
:200CE0000A401A60002159605A6BF8208243783802435A635A6B7F3882435A635A6B03300C
:200D000082435A63D9621963BF2212040192019A9A609960596A802252040A435A6200209E
:200D200002B07047001002400CF8FFF0FFFFF6FEFFFFFBFF10B5FA218900FFF7E5F90138A5
:200D4000034B586000229A6005321A6010BDC04610E000E082B00A4B1B680193019B431C84
:200D60005A1E9341C018064980225202002804D00B681342FAD00138F8E702B07047C046F5
:200D800010E000E0014B18607047C0460000002003008218934200D1704719700133F9E74B
:200DA00070B500260C4C0D4D641BA410A64209D1002600F019F80A4C0A4D641BA410A64252
:200DC00005D170BDB300EB5898470136EEE7B300EB5898470136F2E7200E0008200E0008DE
:200DE000240E0008200E0008F8B5C046F8BC08BC9E467047F8B5C046F8BC08BC9E467047F7
:200E00002E2E2F436F72652F5372632F73746D3332663078785F666C6173682E63000000FB
:200E2000E9000008C100000800127A00FFFFFFFFFFFFFFFFFFFFFFFFFFFFFFFFFFFFFFFF80
:200E4000FFFFFFFFFFFFFFFFFFFFFFFFFFFFFFFFFFFFFFFFFFFFFFFFFFFFFFFFFFFFFFFFB2
:200E6000FFFFFFFFFFFFFFFFFFFFFFFFFFFFFFFFFFFFFFFFFFFFFFFFFFFFFFFFFFFFFFFF92
:200E8000FFFFFFFFFFFFFFFFFFFFFFFFFFFFFFFFFFFFFFFFFFFFFFFFFFFFFFFFFFFFFFFF72
:200EA000FFFFFFFFFFFFFFFFFFFFFFFFFFFFFFFFFFFFFFFFFFFFFFFFFFFFFFFFFFFFFFFF52
:200EC000FFFFFFFFFFFFFFFFFFFFFFFFFFFFFFFFFFFFFFFFFFFFFFFFFFFFFFFFFFFFFFFF32
:200EE000FFFFFFFFFFFFFFFFFFFFFFFFFFFFFFFFFFFFFFFFFFFFFFFFFFFFFFFFFFFFFFFF12
:200F0000FFFFFFFFFFFFFFFFFFFFFFFFFFFFFFFFFFFFFFFFFFFFFFFFFFFFFFFFFFFFFFFFF1
:200F2000FFFFFFFFFFFFFFFFFFFFFFFFFFFFFFFFFFFFFFFFFFFFFFFFFFFFFFFFFFFFFFFFD1
:200F4000FFFFFFFFFFFFFFFFFFFFFFFFFFFFFFFFFFFFFFFFFFFFFFFFFFFFFFFFFFFFFFFFB1
:200F6000FFFFFFFFFFFFFFFFFFFFFFFFFFFFFFFFFFFFFFFFFFFFFFFFFFFFFFFFFFFFFFFF91
:200F8000FFFFFFFFFFFFFFFFFFFFFFFFFFFFFFFFFFFFFFFFFFFFFFFFFFFFFFFFFFFFFFFF71
:200FA000FFFFFFFFFFFFFFFFFFFFFFFFFFFFFFFFFFFFFFFFFFFFFFFFFFFFFFFFFFFFFFFF51
:200FC000FFFFFFFFFFFFFFFFFFFFFFFFFFFFFFFFFFFFFFFFFFFFFFFFFFFFFFFFFFFFFFFF31
:200FE000FFFFFFFFFFFFFFFFFFFFFFFFFFFFFFFFFFFFFFFFFFFFFFFFFFFFFFFFFFFFFF010F
:2010000000200020ED160008D9160008DB1600080000000000000000000000000000000095
:20102000000000000000000000000000DD1600080000000000000000DF160008E1160008B9
:201040003D170008000000003D1700083D1700083D1700083D1700083D1700083D1700080C
:20106000000000003D1700083D1700083D1700083D1700083D1700083D1700080000000048
:201080003D1700083D170008000000003D1700083D1700083D1700083D1700083D170008CC
:2010A000CD1900083D1700083D1700083D1700083D170008000000000000000000000000D2
:2010C00010B5064C2378002B07D1054B002B02D0044800E000BF0123237010BDD0000020AF
:2010E0000000000070340008044B10B5002B03D00349044800E000BF10BDC0460000000028
:20110000D400002070340008002243088B4274D303098B425FD3030A8B4244D3030B8B42D7
:2011200028D3030C8B420DD3FF22090212BA030C8B4202D31212090265D0030B8B4219D324
:2011400000E0090AC30B8B4201D3CB03C01A5241830B8B4201D38B03C01A5241430B8B42AD
:2011600001D34B03C01A5241030B8B4201D30B03C01A5241C30A8B4201D3CB02C01A52410E
:20118000830A8B4201D38B02C01A5241430A8B4201D34B02C01A5241030A8B4201D30B02C4
:2011A000C01A5241CDD2C3098B4201D3CB01C01A524183098B4201D38B01C01A524143090B
:2011C0008B4201D34B01C01A524103098B4201D30B01C01A5241C3088B4201D3CB00C01A7E
:2011E000524183088B4201D38B00C01A524143088B4201D34B00C01A5241411A00D2014620
:20120000524110467047FFE701B5002000F006F802BDC0460029F7D076E770477047C046FE
:20122000F0B5DE4657464E464546E0B58BB01822002104A802F0E6F87B4B5A69802109034C
:201240000A435A615A690A400392039A5A698021C9030A435A615A690A400292029A5A690F
:20126000802189020A435A615A690A400192019A5A698021C9020A435A615B690B40009326
:20128000009B6A4F0125BD6202239846BB6202339A46BB629026F60580231B029946B362FE
:2012A0001023BB622022BA6280239B01049308955F498B4604A9584601F0D2FF8023DB0108
:2012C000049300240594089504A9584601F0C8FF494604910594089504A9584601F0C0FFC5
:2012E00004950594089553498B4604A9584601F0B7FF414604910594089504A9584601F032
:20130000AFFF04950594089504A9300001F0A8FF414604910594089504A9300001F0A0FF1C
:20132000514604910594089504A9300001F098FF082304930594089504A9300001F090FF91
:20134000102304930594089504A9300001F088FF202204920594089504A9300001F080FFDD
:20136000402304930594089504A9300001F078FF802304930594089504A9300001F070FF4B
:201380000495059506940794089404A9380001F067FF41460491059506940794089404A9D9
:2013A000380001F05DFF51460491059506940794089404A9380001F053FF80235B00049354
:2013C0000594089504A9300001F04AFF80239B0004930594089504A9300001F041FF494618
:2013E0000491059506940794089404A9300001F037FF10230493059506940794089404A907
:20140000380001F02DFF20220492059506940794089404A9380001F023FF0BB0F0BCBB46D4
:20142000B246A946A046F0BD00100240000400480008004800140048F0B5C64600B590B042
:201440001C22002109A801F0DDFF1822002103A801F0D8FF304C63698022D2021343636109
:20146000636913400293029B8023DB00039302239846049303250595012606960896274FD4
:2014800003A9380001F0ECFE80231B010393434604930595069600250795089603A938009F
:2014A00001F0DEFEE3698022D2031343E361E36913400193019B1A4BC62189005A58FF208D
:2014C00082435A50802252041A60164CE368164A1340E3602368154A134023602368144ADF
:2014E000134023600995134B0A930B950C9510230D930E950F9509A9200001F047FF62684F
:2015000080239B0413436360E3680B4A1340E36010B080BCB846F0BD0010024000040048F5
:2015200000E100E000580040FF7FFFFFFFFFF7FFFFFFFDFF1706300001F8FFFF084B094AFE
:201540001A60094A1A6004225A60084A9A6019000722CB681A42FCD1014B054A1A607047AE
:2015600000300040CCCC000055550000FF0F0000AAAA000082B080239B050E480E4A991883
:201580001A000433096811608342F7D10B4A9169012319439161926913400193019B084BF9
:2015A0001A6803218A431A601A680A431A6002B07047C046C0000020001000E8001002405C
:2015C0000000014010B500F0F3F8FF2804D000F0EFF8054B187010BD034B08221A70F73882
:2015E00000F0AEF8F7E7C046C105002000B591B02C22002105A801F005FF10220021684683
:2016000001F000FF0A230493093B0793102208920B9301330C9380231B030E9304A801F0FC
:20162000F1FA00280ED107230093053B01930023029303930021684601F076FD002803D1AA
:2016400011B000BD72B6FEE772B6FEE770B5FFF791FFFFF7B7FF01F0E1F8FFF7C7FFFFF71F
:20166000DFFDFFF7E9FE8021902001220902C00501F0C2FA00F022FF00F06CFA00F09EF8D3
:2016800000F01EF900F068FFFFF758FF044D054C00F00AFB00F0FEFB00F08CFF2C60F7E73A
:2016A00000300040AAAA000082B00A4B996901221143996199690A400092009ADA69802110
:2016C00049050A43DA61DB690B400193019B02B07047C04600100240FEE7FEE7704770477C
:2016E00010B501F0ABF810BD704700000D488546FFF7FAFF0C480D490D4A002302E0D458CC
:20170000C4500433C4188C42F9D30A4A0A4C002301E013600432A242FBD301F07BFEFFF79F
:2017200095FFFEE700200020C0000020CC000020B8350008D000002040060020FEE70000F4
:20174000F0B585B00500194A1668576872B600230193029201220392009301F013F96946A0
:2017600001A801F0E3F9040001F020F9002C03D062B6002005B0F0BD01F004F9FF2332000A
:201780009A432A433B000949032001F047F9040001F00CF962B60020002CEBD1034B1B7823
:2017A000ED1A6B425D41E8B2E4E7C04600F40008014B1878C0B2704700F4000830B591B049
:2017C0001C22002109A801F01DFE1822002103A801F018FE2F4C63698022D2021343636109
:2017E000636913400293029B8023DB0003930223049301330593023B06930893264D03A96C
:20180000280001F02DFD80231B01039303A9280001F026FDE3698022D2031343E361E3699F
:2018200013400193019B1D4BC62189005A58FF2082435A50802252041A60194CE368194A88
:201840001340E3602368184A134023602368174A1340236000230993154A0A920B930C9376
:20186000144D2A7852000D920E930F9309A9200001F08CFD626880239B0413436360E36875
:201880000D4A1340E3602B785B00DBB20B4A137011B030BD001002400004004800E100E0EB
:2018A00000580040FF7FFFFFFFFFF7FFFFFFFDFF17063000C105002001F8FFFFFC000020E0
:2018C0000A4B1A6801210A431A601A6807310A431A601A6808310A431A601A6870310A43D5
:2018E0001A601A6860390A431A60704700580040084B1A6808218A431A601A6808318A4370
:201900001A601A6870318A431A601A6860398A431A6070470058004010B50C0096239B000D
:20192000994202D8002902D10EE09624A40000280AD0064B22000100180001F08FFD044B50
:2019400000221A80034B1C8010BDC04600010020FA000020F80000200A4B1B889BB29622BE
:201960009200934202D3074B00221A80054A138899B201339BB21380034B5B6ADBB2034AE7
:2019800053547047FE00002000580040580300200A4A13889BB20A49CB5CDBB209498B6236
:2019A000138801339BB213801388074A12889BB2934202D3014B00221A807047FA00002022
:2019C0000001002000580040F800002070B5574B1A6801321A601A68554B9A4214D8554BB6
:2019E0009B691B0728D5534B9B69534A1178C9B25B0C5B00FF221340994249D04D4AD36984
:201A000008210B43D36170BD4A4C200001F092FC63684A4A1340636023680122934323603D
:201A20002368073293432360FFF7C8FEFFF748FF3E4B00221A60D2E73E4B9B69DB0668D408
:201A40003C4B9B699B076AD43A4B9B695B0769D4384B9B699B06D6D5364BDA6920210A43CE
:201A6000DA619B69DB0702D4324B01229A61FFF73FFF334D298889B2324800F07BF8002433
:201A80002C80FFF71DFF304B1C60304B1C60BAE72B4B1B889BB2002B10D1264B9B69DB0334
:201AA00019D4244BDA6908210A43DA611A6804390A431A60244B01221A60A4E7FFF718FFAC
:201AC0001F4C218889B21F4800F054F800232380FFF7F6FEE1E7174B9B69DB0313D51C4B09
:201AE0001B78002B0CD01A4B00221A70114BDA6908210A43DA611A6806390A431A6082E7FA
:201B000000F084F9EFE70B4AD36908210B43D36179E7084AD36910210B43D36173E7FFF755
:201B200037FF70E7FFF718FF6DE7C046F4000020E02E000000580040FC000020FFFFFFFDE1
:201B4000FE00002058030020F0000020EC000020C005002070B500F095FE050000F098FEB8
:201B6000040000F09BFE024B1D605C60986070BDB405002000B591B0012915D023D90378D8
:201B8000F02B5FD0F12B63D0FD2B67D102291AD14378002B17D0BFF34F8F3C4B3C4ADA6092
:201BA000BFF34F8FC046FDE70278D02A0DD013002033DBB20B2B12D913001033DBB2012B37
:201BC00018D9FD2A2AD811B000BD02236A4613706846FFF7A1FE2F4B01221A70F3E70C21A4
:201BE000C91A89B22C481818FFF796FE294B01221A70E8E7294B1B786A461370284B1B7869
:201C00005370244B01221A700378F221C91A89B2F03B6B441800FFF77FFED4E703236A4643
:201C20001370204B1B7853701A4B01221A70037880214900C91A89B2FE3B6B441800FFF7D5
:201C40006BFEC0E70229BED14278144B1A70BAE70229B8D14278124B1A70B4E7FF2BB2D1D9
:201C60000229B0D140780300083B6F2BABD80D4B1B78DBB29842A6D00A4B1870FFF760FDA5
:201C8000FFF79CFDFFF71CFE9DE7C04600ED00E00400FA05C0050020B40500200506002062
:201CA0001A060020C105002010B51A4B00221A60194B1B68002B04D1184B1B68322B10D826
:201CC00010BD00F0C7FD164B1B689842F4D9134A13680133136000F0BDFD0A30104B1860C2
:201CE000EAE7104C200001F025FB63680E4A134063602368012293432360236807329343AC
:201D00002360FFF75BFDFFF7DBFDFA20400000F0A7FDD5E7F4000020F0000020EC0000204A
:201D2000B005002000580040FFFFFFFDF0B5040005A840C8077807A800788446002C34D13D
:201D40001568002D03D1089B1360200031E0187800282FD1089A551B132D2AD93268089877
:201D6000821AFA204000824212D20A78012A09D000220A7010490A70089A326001221A70EF
:201D8000012016E001320A700B4A61461170F3E70A78002A04D101320A70074A1770EBE750
:201DA00000220A7004490A70E6E70021197011600020F0BD2000FCE71A06002070B5431E42
:201DC000022B08D9022000F04BFD9023DB0518698005800D70BD18005B001B18094A9D189A
:201DE000D25C094C0421200000F006FF6A780221200000F001FFAA780121200000F0FCFEC3
:201E0000E0E7C046983400080004004810B51A4B1B78002B0FD1194B1B78002B1AD1184B9D
:201E20001B78002B22D017480121FFF775FD144B00221A7006E014480A21FFF76DFD0E4BD8
:201E400000221A708021902001220902C00500F0D3FE10BD0D480121FFF75EFD074B0022C8
:201E60001A70074B1B78002BECD0F2E708480A21FFF752FDE6E7C04604060020010600204F
:201E800000060020020600201006002003060020E4050020F0B5DE4657464E464546E0B572
:201EA00089B0B74B1B78DAB20592002B0BD0B44B1B78012B00D12CE209B0F0BCBB46B24630
:201EC000A946A046F0BD00F0C5FC804680218901AC4800F08BFEAC4BAC4AAD49444603946D
:201EE00002240294013C0194AA4C0094FFF71EFF002806D0A84A00231370A84A1370A84ABA
:201F000013700221A74800F071FEA74BA74AA2494446039405240294013C0194A44C0094C9
:201F2000FFF704FF002806D0994A002313709B4A13709B4A137001219A4800F057FE9D4B20
:201F40009D4A96494446039406240294013401949A4C0094FFF7EAFE002806D08C4A0023C1
:201F600013708D4A13708E4A13708021C901854800F03CFE002823D1874A00231370874A63
:201F80001370834A1370864B01221A708C4B02321A70802109027B4800F028FE002813D1CA
:201FA000884B1B78002B12D1864B01221A701D239946774B1B78002B00D135E2059338E1F7
:201FC000774B00221A70E4E77E4B00221A707E4D059EFF23994601247C4F9023DB059B4680
:201FE0007B4B9A4621E0059B4DE07A4AD35C0A33DBB299464EE0784AD35C9946774B1B787E
:20200000012B60D000D8FEE1022B00D1B3E0032B00D0EDE0724B42461A60F1E0FF239946C0
:202020000134E4B20335042C3BD02A780421380000F0E2FD6A780221380000F0DDFDAA786B
:202040000121380000F0D8FD022000F009FC5B461B699B059B0D5345E2D00136F6B2FF2293
:202060009146012EDCD15A4A5A40531E1A42D5D1D307B8D4059B012152080133DBB2114266
:20208000FAD0092B0AD8022CAFD0032CB3D0514AD35C99460134E4B20335C6E7FF239946A7
:2020A000BEE7002E1DD14D4B1B78022B00D1C7E13200022B1DD8002B2ED0002A3AD0012EAE
:2020C0003ED8FF2399464B46FF2B39D0454B1B784B453CD0434B4A461A70434B42461A602E
:2020E0008EE0012E8AD03D4B1B78022B43D00122DFE7032B7CD1002A8CD1394B1B68424614
:20210000D31A1D2B7CD9354B00221A70354BFF211970364B1A7073E0344B00211970012E2A
:2021200001D8002A6CD02D4B03221A702C4B42461A6065E0294B1A702A4BFF321A705FE00E
:20214000264B03221A70264B42461A6058E0264B1B684246D31A1D2B52D9204B02221A70BF
:20216000224B00221A7024E7204B01221A701C4B42461A6044E01D4B00221A7040E0C0465C
:202180000506002000080048DC050020E0050020FE050020F8050020FC050020FD0500203B
:2021A000FF05002000140048D4050020D8050020F4050020CF050020D0050020F005002092
:2021C0001A060020CE0500209834000800040048FF030000B0340008A4340008CD050020EC
:2021E000C8050020C4000020C4050020CC0500209E4B00221A709E4BFF2119709D4B1A709B
:202200009D4B1B78002B00D056E69C4B9C4A1B78127813439B4A12781343FF229146002BE4
:2022200000D049E6984B00221A704B46FF2B00D142E6964B1B78002B00D03DE6944B1B7858
:20224000002B00D038E64B461D2B0ED0222B15D88A4B1B78002B1CD08E4B4A4692004A446C
:202260009B181A798C4B1A7008E08B4B0D221A708A4B033A1A70864B093A1A70834B012215
:202280001A708021902000220902C00500F0B4FC12E67C4B1B78002B0ED0012B08D07D4BAA
:2022A0004A4692004A449B189A787B4B1A70E5E7744B00221A70F2E7714B1B78002B0ED0F1
:2022C000012B08D0734B4A4692004A449B18DA78714B1A70D2E76A4B00221A70F2E7059BAE
:2022E000002B0ED0012B08D06A4B4A4692004A449B185A78684B1A70C0E75F4B00221A70AD
:20230000F2E7644B4A4692004A44D25C624B1A70B4E70120FFF752FD06AD28800220FFF7AC
:202320004DFD80235B0103436B800320FFF746FD802189010843A880594E300000F056FC10
:2023400004008021C901300000F050FC814680210902300000F04AFC0700524B9846012125
:20236000180000F043FC06000221404600F03EFC4B465B00000103431C43BF003C43F60077
:202380003443C0239B012343EB802800464F002200230593454D2E0009E0240223431C0A81
:2023A0007C70BB70013202300237042A0CD05300595B89B2038800249942EED051008B53A5
:2023C000803480210591E8E7374B06321A7000220023354CA05CC318DBB20132D0B20828F0
:2023E000F8D9314A5B425372059B002B00D163E52F4B01221A708021902000220902C005E1
:2024000000F0FAFB58E51B4B00221A704B46FF2B00D188E6154B01221A70154B4A461A7007
:20242000244B42461A60EBE6144A1549127809780A43144909780A4300D1F3E60593F8E6FB
:202440000C4B1B78002B00D18EE61B4B1B684246D31A1D2B00D8D3E6044B00221A70044BA1
:20246000FF211970034B1A70CAE6C046CD050020C4000020CC050020FE050020FF05002017
:20248000FC050020FD0500201A0600200106002000060020BC340008030600200206002023
:2024A0000008004800140048100600200806002004060020C4050020C8050020F8B5CE464B
:2024C000474680B50120FFF779FC204E30800220FFF774FC80235B0103439BB27380032060
:2024E000FFF76CFC80218901084380B2B080184F380000F07BFB04008021C901380000F00A
:2025000075FB050080210902380000F06FFB8046104B99460121180000F068FB0700022151
:20252000484600F063FB6D00000105432C4343469B001C43FF003C43C0239B0123439BB267
:20254000F380C0BCB946B046F8BDC04608060020000800480014004870B50024144D012235
:202560001021280000F048FB00222021280000F043FB200000F074F901222021280000F01D
:202580003BFB00221021280000F036FB200000F067F91E34962CE2D1054C0022202120005E
:2025A00000F02AFB00221021200000F025FB70BD0004004810B500F04DF9824B1B78DBB222
:2025C000082B00D9D8E09B007F4AD3589F467F4C00221021200000F00FFB00222021200008
:2025E00000F00AFB10BD794C01221021200000F003FB00222021200000F0FEFAF2E7FA2193
:202600004900FEF781FDC0070BD5704C00221021200000F0F1FA00222021200000F0ECFAF4
:20262000E0E76A4C01221021200000F0E5FA00222021200000F0E0FAD4E79621FEF764FDC5
:20264000C0070BD5614C00221021200000F0D4FA00222021200000F0CFFAC3E75B4C012245
:202660001021200000F0C8FA00222021200000F0C3FAB7E7554C01222021200000F0BCFABE
:2026800000221021200000F0B7FAABE7FA214900FEF73AFDC0070BD54C4C00222021200042
:2026A00000F0AAFA00221021200000F0A5FA99E7464C01222021200000F09EFA0022102113
:2026C000200000F099FA8DE79621FEF71DFDC0070BD53E4C00222021200000F08DFA0022D0
:2026E0001021200000F088FA7CE7384C01222021200000F081FA00221021200000F07CFA68
:2027000070E7FA214900FEF7FFFCC0070BD52F4C01221021200000F06FFA0022202120009C
:2027200000F06AFA5EE7294C01222021200000F063FA00221021200000F05EFA52E7C821DD
:20274000FEF7E2FCC0070BD5204C01221021200000F052FA00222021200000F04DFA41E701
:202760001A4C01222021200000F046FA00221021200000F041FA35E7124B1B785BB2002B5D
:2027800000DB2FE70F4B1B78DB060ED5012210210E4800F031FA0B4B1B789B060BD5012245
:2027A00020210A4800F028FA1CE700221021074800F022FAEFE700222021044800F01CFA38
:2027C00010E7C0461A0600206C3500080004004870B504000E4D0F4B1978FA208000FEF7C9
:2027E00093FC01002868FEF78FFC00F08FF800280BD10130032C09D800222100404200F0C8
:2028000053F8054B1C60002000E0012070BDC046C0000020C5000020C800002010B5064A8B
:20282000136810210B4313600320FFF7D1FFFEF73BFF002010BDC04600200240034A1168F8
:20284000034B1B785B1813607047C0461C060020C5000020014B18687047C0461C06002002
:2028600070B50400FFF7F6FF0500631C02D0044B1B78E418FFF7EEFF401BA042FAD370BDF6
:20288000C5000020014B18687047C046ACF7FF1F014B18687047C046B0F7FF1F014B1868EF
:2028A0007047C046B4F7FF1F70B5002814DB8408A400144B9C466444C026B600A55903227E
:2028C0000240D200FF2318009040854389010B4093402B43A35170BD0F230340083B9B0880
:2028E0009B00094A94466344DC6903221040C000FC3215008540AC4389010A4082402243FD
:20290000DA61E8E700E100E000ED00E0013880235B0498420FD2094A50600948036A1B024B
:202920001B0AC02109060B4303620023936007331360002070470120FCE7C04610E000E05B
:2029400000ED00E00D4BDA6810210B001340114205D00B4AD3690E390B43D3611023074A7B
:20296000D268520706D50649CA6901200243CA6104221343014AD3607047C04600200240BD
:2029800020060020064B1B6900201B0607D5044B044A5A60044A5A6018690006C00F704793
:2029A0000020024023016745AB89EFCD034A136980210B43136100207047C046002002408A
:2029C000F8B50400FFF746FF0700134E0125F3681D420AD0631CFAD0002C1BD0FFF73AFF5A
:2029E000C01BA042F3D903200FE00B4BDB689B0602D5094B2022DA60074BDB68DB0605D40C
:202A0000054BDB6800205B0700D4F8BDFFF79AFF0120FAE70320F8E700200240F0B5DE465A
:202A200057464E464546E0B583B004000E0001929946294B1B7E012B4BD0274B01221A7615
:202A40002648FFF7BDFF002839D1012C0ED0023C631E9C416300984602239C46E0440025EC
:202A60001D4B9B4600239A461D4C21E001239846F5E72022D21A494691400A000199D94077
:202A80000B0013439BB25A465146D161226901273A43226133801148FFF792FF2369BB434F
:202AA000236100280BD101350236EBB2984506D92B011A00203ADCD44B46D340E2E7064BB9
:202AC00000221A7603B0F0BCBB46B246A946A046F0BD0220F6E7C0462006002050C300000C
:202AE00000200240064B0022DA61064B1A6904210A431A611A693C310A431A617047C04690
:202B00002006002000200240064B0022DA61064B1A6902210A431A6158611A693E310A43A8
:202B20001A6170472006002000200240F8B5CE46474680B505008846294B1B7E012B4DD00F
:202B4000274B01221A760368012B29D02548FFF737FF03000120002B29D1013B42461360A7
:202B60006C68AB689B021B199C4235D21D4B99461D4E02272000FFF7C7FF4846FFF720FF5E
:202B80003369BB433361002823D18023DB009C466444AB689B026A689B18A342EAD806E021
:202BA0001048FFF70DFF03000120002B06D00C4B00221A76C0BCB946B046F8BDFFF792FFE0
:202BC0000848FFF7FDFE084A136904218B431361EDE743461C60EAE70120E8E70220E9E7F3
:202BE0002006002050C300000020024000690840431E9841C0B27047002A01D08161704772
:202C00008162FCE7F0B5CE46474680B583B0041E00D14CE20368DB0726D5B74B5A680C23E4
:202C20001340042B18D0B44B5A680C231340082B0ED06368012B3DD0002B54D1AE4B1A6807
:202C4000AE490A401A601A68AD490A401A6037E0A94B5B68DB03ECD5A74B1B689B0303D525
:202C60006368002B00D128E223689B0778D5A24B5B680C221A4262D09F4B5A680C2313406F
:202C8000082B58D0E368002B00D18CE09A4A136801210B431360FFF7DDFD0500964F022602
:202CA0003B681E4276D1FFF7D5FD401B0228F7D90320FDE1904A116880235B020B43136098
:202CC0006368002B27D0FFF7C5FD05008A4F8026B6023B683342C7D1FFF7BCFD401B6428CD
:202CE000F7D90320E4E1052B09D0834B1A6883490A401A601A6882490A401A60E0E77E4B92
:202D000019688022D2020A431A601968802252020A431A60D4E7FFF79DFD0500764F8026FC
:202D2000B6023B6833429FD0FFF794FD401B6428F7D90320BCE1704B5B68DB03A2D46E4BCB
:202D40001B689B0704D5E3680120012B00D0AFE169490A682369DB00F820824313430B6054
:202D600023681B0747D5E369002B30D0624A536A01210B435362FFF76DFD05005E4F02264B
:202D80007B6A1E4237D1FFF765FD401B0228F7D903208DE158490A682369DB00F820824351
:202DA00013430B60DCE7544A136801218B431360FFF750FD0500504F02263B681E42CFD062
:202DC000FFF748FD401B0228F7D9032070E14A4A536A01218B435362FFF73CFD0500464F30
:202DE00002267B6A1E4206D0FFF734FD401B0228F7D903205CE123685B0700D489E03E4B01
:202E0000DB6900229146DB000BD43B4BDA69802149050A43DA61DB690B400193019B012398
:202E20009946384B1B68DB050ED5A368012B21D0002B39D1304B1A6A01218A431A621A6A9F
:202E400003318A431A621AE02E4A116880235B000B431360FFF7FEFC06002A4D80277F00B8
:202E60002B683B42E1D1FFF7F5FC801B6428F7D903201DE1204A136A01210B431362A368BA
:202E8000002B27D0FFF7E6FC06001B4B984602271D4D43461B6A1F4238D1FFF7DBFC801B7B
:202EA000A842F6D9032003E1052B09D0124B1A6A01218A431A621A6A03318A431A62DEE737
:202EC0000D4B1A6A04210A431A621A6A03390A431A62D4E7FFF7BEFC0600074B98460227D5
:202EE000094D43461B6A1F4210D0FFF7B3FC801BA842F6D90320DBE000100240FFFFFEFF09
:202F0000FFFFFBFF00700040881300004B46012B37D02368DB0610D56369012B37D0053322
:202F200056D1684A536B04218B435363516BA369DB00F82081430B435363236A0020002BF6
:202F400000D1B5E05F4A51680C220A40082A00D193E0022B54D05B4A13685B490B401360E8
:202F6000FFF778FC0400574E8025AD0433682B4200D180E0FFF76EFC001B0228F6D9032018
:202F800096E0504AD36951490B40D361C1E74D4B5A6B04210A435A635A6B03390A435A638D
:202FA000FFF758FC0500474F02267B6B1E4206D1FFF750FC401B0228F7D9032078E041494B
:202FC0004A6BA369DB00F820824313434B63B4E73C4B5A6B04210A435A635A6B03398A4390
:202FE0005A63FFF737FC0500364F02267B6B1E42A3D0FFF72FFC401B0228F7D9032057E0B0
:20300000304A136830490B401360FFF723FC05002C4F8026B6043B68334206D0FFF71AFC95
:20302000401B0228F7D9032042E0264BDA6A0F218A43E16A0A43DA625968A26A606A024394
:20304000234801400A435A601968802252040A431A60FFF7FFFB04001A4E8025AD04336830
:203060002B4206D1FFF7F6FB001B0228F7D903201EE000201CE000201AE0012B1FD0114B42
:203080005A68DD6A80235B021340616A01208B420ED10F232B40E16A8B4209D1F0239B03FC
:2030A0001A40A36AD21A531E9A41D0B200E0012003B0C0BCB946B046F0BD0120F8E70120FC
:2030C000F6E7C04600100240FFFFFFFEFFFFFFEFFFFFC2FF10B5104B5A680C231340082B7E
:2030E00001D00E4810BD0E4993021B0FCC5C0A4BD96AD20308D50B4A0F230B40D15C074806
:20310000FEF702F86043EDE76201121B93019B1ADB001B191802E5E70010024000127A009D
:20312000A035000890350008F8B5CE46474680B504000D00002800D182E0434B1A680123C2
:2031400013408B420AD240490B68012293432B430B600B681A400120AA426DD123689A0761
:203160000ED55B0705D5394A5168E023DB000B435360364A5368F0218B43A1680B435360F1
:203180002368DB0730D56268012A21D0022A25D02E4B1B689B0755D52C494B6803208343DD
:2031A00013434B60FFF756FB0600284B98460C27274B994643465A683A4063689B009A42E5
:2031C00012D0FFF747FB801B4845F3D9032033E01E4B1B689B03DFD401202DE01B4B1B6857
:2031E0009B01D9D4012027E0174B1A6801231340AB4208D9144B1A6801218A431A601B6868
:203200000120194218D123685B0706D50F4A536810490B40E1680B435360FFF75BFF0B4BD9
:203220005B680D490D4A1B061B0FD35CD84008600320FFF7CDFA0020C0BCB946B046F8BDFE
:203240000120F9E70120F7E7002002400010024088130000FFF8FFFFC00000208834000886
:20326000F0B5D6464F464646C0B50B68002B5BD000220124A14620E0C36898462700674326
:203280007B009C46BC446346DE430B697B439A46454663469D432B0055461D43C5604B68E3
:2032A000022B26D004684B687B4334402343036001320B681C00D44036D04E4696401C006F
:2032C00034403342F4D04B68013B012BD4D88368270067437E00F619B3438E687E4333430E
:2032E00083600F684368BB43CE687E4333434360C2E7FF2C0CD8036A3C007C43A44624018C
:203300006546641BA3434C696C4323430362C9E7436A240A6443644325012D1BAB434D6983
:203320006C4323434362BDE70020E0BCBA46B146A846F0BD0300104A904204D00F4A012064
:2033400093420CD070470E4B1969802292030A431A611A690B490A401A610020F2E7084B43
:2033600019698022D2030A431A611A6906490A401A610020E6E7C0460054004000580040D6
:2033800000100240FFFFDFFFFFFFBFFF30B503680124A34303600268CB681B028D682B4368
:2033A000154D2A40134303604B6803610368234303608368114A1340836082680B698C696E
:2033C0002343D20AD202134383600B69002B04D0826880231B02134383600368084A134038
:2033E0000A68134303604368044A13404A6913434360002030BDC046FFE0FFFFFF7FFFFF3E
:20340000FFFFCFFF03008218934200D1704719700133F9E770B500260C4C0D4D641BA41019
:20342000A64209D1002600F023F80A4C0A4D641BA410A64205D170BDB300EB5898470136C2
:20344000EEE7B300EB5898470136F2E7B0350008B0350008B4350008B0350008002310B512
:203460009A4200D110BDCC5CC4540133F8E70000F8B5C046F8BC08BC9E467047F8B5C04606
:20348000F8BC08BC9E467047000000000000000001020304060708090101000100010001EC
:2034A00001000000201C1B1A19181716151F00000908070605040302010000007151237E78
:2034C000907757315E91654532269272523360937454283C947959293E9575555F7B9669BF
:2034E000492D7D976F4F2B5B987050405D9961412A7C9A7353343D9B6444355C9C66463605
:20350000259D67472FB49E68483AB59F6A4A3BB6A06B4B27B7A16C4C22B8A208087F08A394
:20352000FFFFFFFFFF7A5A37BAA5785838BBA6634339BCA776563FBDA8624221BEA96E4E23
:203540002CBFAA6D4D2EC0AB2424FFC1AC0D0D0D0D0DFFFFFFFFFF30303030AF20202020A4
:20356000B0FFFFFFFFFFFFFFFFFFFF00CE250008E6250008FE2500083A2600087426000862
:203580008C260008C8260008022700083E2700080102030405060708090A0B0C0D0E0F1055
:2035A00002030405060708090A0B0C0D0E0F1010E9100008C110000800127A00FF0100000E
:2035C00004000000FFFFFFFFFFFFFFFFFFFFFFFFFFFFFFFFFFFFFFFFFFFFFFFFFFFFFFFF03
:2035E000FFFFFFFFFFFFFFFFFFFFFFFFFFFFFFFFFFFFFFFFFFFFFFFFFFFFFFFFFFFFFFFFEB
:20360000FFFFFFFFFFFFFFFFFFFFFFFFFFFFFFFFFFFFFFFFFFFFFFFFFFFFFFFFFFFFFFFFCA
:20362000FFFFFFFFFFFFFFFFFFFFFFFFFFFFFFFFFFFFFFFFFFFFFFFFFFFFFFFFFFFFFFFFAA
:20364000FFFFFFFFFFFFFFFFFFFFFFFFFFFFFFFFFFFFFFFFFFFFFFFFFFFFFFFFFFFFFFFF8A
:20DFE000FFFFFFFFFFFFFFFFFFFFFFFFFFFFFFFFFFFFFFFFFFFFFFFFFFFFFFFFC50B897272
:20E00000FFFFFFFFFFFFFFFFFFFFFFFFFFFFFFFFFFFFFFFFFFFFFFFFFFFFFFFFFFFFFFFF20
:20E02000FFFFFFFFFFFFFFFFFFFFFFFFFFFFFFFFFFFFFFFFFFFFFFFFFFFFFFFFFFFFFFFF00
:20E04000FFFFFFFFFFFFFFFFFFFFFFFFFFFFFFFFFFFFFFFFFFFFFFFFFFFFFFFFFFFFFFFFE0
:20E06000FFFFFFFFFFFFFFFFFFFFFFFFFFFFFFFFFFFFFFFFFFFFFFFFFFFFFFFFFFFFFFFFC0
:00000001FF
